:020000040800F2
:1000000000060020ED000008F5000008F7000008D9
:10001000F9000008FB000008FD00000800000000D7
:10002000000000000000000000000000FF000008C9
:10003000010100080000000003010008050100089C
:100040000701000807010008070100080701000870
:100050000701000807010008070100080701000860
:100060000701000807010008070100080701000850
:100070000701000807010008070100080701000840
:100080000701000807010008070100080701000830
:100090000701000807010008070100080701000820
:1000A0000701000807010008070100080701000810
:1000B0000701000807010008070100080701000800
:1000C00007010008070100080701000807010008F0
:1000D00007010008070100080701000807010008E0
:1000E0000701000819010008190100080E4880479F
:1000F0000E480047FEE7FEE7FEE7FEE7FEE7FEE705
:10010000FEE7FEE7FEE72DE9FF5F0948016841F4DD
:1001100080510160BDE8FF9FFEE7000005480649E9
:10012000064A074B7047000079020008E102000808
:1001300014040140000000200006002000020020FE
:1001400000020020704770477047000080B500F043
:1001500001F880BD84B000200390029041F20001BC
:10016000C4F20201086840F480300860FFE741F201
:100170000000C4F20200006800F40030029003980E
:1001800001300390FFE702990020019039B9FFE7A1
:100190000398B0F5A06018BF01200190FFE7019817
:1001A000C0070028E3D1FFE741F20000C4F20200DB
:1001B00000688003002803D5FFE70120029002E0D9
:1001C00000200290FFE70298012851D1FFE742F298
:1001D0000001C4F20201086840F0100008600868DD
:1001E00020F007000860086840F00200086041F253
:1001F0000401C4F202010091086808600868086000
:10020000086840F480600860086820F47C1008608A
:10021000086840F4E810086041F20001C4F20201ED
:10022000086840F080700860FFE741F20000C4F207
:10023000020000688001002801D4FFE7F5E741F2E1
:100240000401C4F20201086820F003000860086895
:1002500040F002000860FFE741F20400C4F202002F
:10026000006800F00C00082801D0FFE7F4E700E088
:10027000FFE704B07047000080B541F20002C4F20D
:100280000202106840F00100106041F20401C4F263
:10029000020108680023CFF6FF03184008601068C9
:1002A0004FF6FF73CFF6F66318401060106820F425
:1002B00080201060086820F4FE00086041F2080108
:1002C000C4F202014FF41F000860FFF73FFF4EF633
:1002D0000851CEF200014FF00060086080BD0000C0
:1002E00000F059F800F06DF89F48A049016000F057
:1002F00073F84FF007074FF0000807F1030800F00C
:1003000096F89B4801684FEA01419A48026841EA21
:10031000020303F01F049848016821F01F0141EA1D
:1003200004010160BB4202D141F02001016043455C
:10033000E7D121F020010160E3E72DE90041DFF87A
:100340003C82B8F10108B8F1000FFADABDE800818B
:100350002DE90041DFF824824FEA5808B8F101087E
:10036000B8F1000FFADABDE800812DE90041DFF8AD
:100370000C82B8F57A78B8F1000FFADABDE800819E
:100380002DE90041DFF8F481B8F16408B8F1000FFD
:10039000FADABDE800812DE9FF5F794801684FF086
:1003A000010241EA82010160BDE8FF9F2DE9FF5F84
:1003B000734801684FF0010241EAC2010160BDE8E3
:1003C000FF9F2DE9FF5F6E4801684FF0010241EA8F
:1003D00002110160BDE8FF9F2DE9FF5F68480168D9
:1003E00041F0010101606748016821F4702141F486
:1003F000802101606448016821F00F0141F0010192
:1004000001606248016841F4805101606048016800
:1004100041F4805101605F48016821F4805101601E
:100420005D48016841F480710160BDE8FF9F2DE9DE
:10043000FF5F5A48016841F0006141F0805101605E
:100440005748016841F4807101605648016841F0E5
:10045000010101600A4602F00202002AFAD0514866
:10046000016821F4407141F4807101604D480168D8
:1004700041F4004101604C48016801F0200100296D
:10048000F9D04948016801F008010029F9D0016854
:1004900041F010010160454847F6FF710160424894
:1004A000016821F010010160BDE8FF9F2DE9FF5FA9
:1004B0003348016841F4007101602B48016821F064
:1004C000F00101603A48016841F0380101603948A3
:1004D0004FF0010101603848016841F020010160DE
:1004E0003648016841F00101016041F4800101607A
:1004F00033484FF480210160BDE8FF9F2DE9F05F94
:100500004FF4616804FB08F44FF03C0905FB09F562
:1005100004EB050707EB0600BDE8F09F2DE9F05F4F
:1005200013480168134802684FEA014141EA020397
:100530004FF461644FF00005A34204DBA3EB040316
:1005400005F10105F8E74FF03C044FF00006A34227
:1005500004DBA3EB040306F10106F8E72846314665
:100560001A46BDE8F09F0000000801403333330015
:10057000182800401C2800400C08014004601800A6
:1005800018100240040C0140140001400004014016
:10059000080401400C04014004E100E01C1002408A
:1005A0000070004020100240042800400C28004049
:1005B0001024014034240140042401400824014057
:0405C00000E100E076
:04000005080000ED02
:00000001FF
