:020000040800F2
:1000000000060020ED000008F5000008F7000008D9
:10001000F9000008FB000008FD00000800000000D7
:10002000000000000000000000000000FF000008C9
:10003000010100080000000003010008050100089C
:100040000701000807010008070100080701000870
:100050000701000807010008070100080701000860
:100060000701000807010008070100080701000850
:100070000701000807010008070100080701000840
:100080000701000807010008070100080701000830
:100090000701000807010008070100080701000820
:1000A0000701000807010008070100080701000810
:1000B00007010008170100081701000817010008D0
:1000C00017010008170100081701000817010008B0
:1000D00017010008170100081701000817010008A0
:1000E0001701000833010008330100081448804755
:1000F00014480047FEE7FEE7FEE7FEE7FEE7FEE7FF
:10010000FEE7FEE7FEE703B50F484FF00001016090
:1001100009F1010903BD2DE9FF5F0C48016841F4B5
:10012000805101600A48016881F020010160BDE84A
:10013000FF9FFEE707480849084A094B704700003F
:100140009902000801030008100000401404014057
:100150000C080140000000200006002000020020E2
:1001600000020020704770477047000080B500F023
:1001700001F880BD84B000200390029041F200019C
:10018000C4F20201086840F480300860FFE741F2E1
:100190000000C4F20200006800F4003002900398EE
:1001A00001300390FFE702990020019039B9FFE781
:1001B0000398B0F5A06018BF01200190FFE70198F7
:1001C000C0070028E3D1FFE741F20000C4F20200BB
:1001D00000688003002803D5FFE70120029002E0B9
:1001E00000200290FFE70298012851D1FFE742F278
:1001F0000001C4F20201086840F0100008600868BD
:1002000020F007000860086840F00200086041F232
:100210000401C4F2020100910868086008680860DF
:10022000086840F480600860086820F47C1008606A
:10023000086840F4E810086041F20001C4F20201CD
:10024000086840F080700860FFE741F20000C4F2E7
:10025000020000688001002801D4FFE7F5E741F2C1
:100260000401C4F20201086820F003000860086875
:1002700040F002000860FFE741F20400C4F202000F
:10028000006800F00C00082801D0FFE7F4E700E068
:10029000FFE704B07047000080B541F20002C4F2ED
:1002A0000202106840F00100106041F20401C4F243
:1002B000020108680023CFF6FF03184008601068A9
:1002C0004FF6FF73CFF6F66318401060106820F405
:1002D00080201060086820F4FE00086041F20801E8
:1002E000C4F202014FF41F000860FFF73FFF4EF613
:1002F0000851CEF200014FF00060086080BD0000A0
:1003000001F029FB01F085FB01F099FB07B4BE4821
:10031000016801F002010D46002903D107BC00F07D
:100320002DFA01E000F0AFFB4FF0000907B4B6482A
:10033000016801F48041002901D001F0EEFB07BC07
:1003400007B4B148016801F00201A94200D0DDD133
:10035000002903D107BC00F03BFA01E000F0BDFB2F
:10036000E4E72DE9FF5F4FF0070800F06DF94FF06B
:10037000000A4FF00A0800F05DFF4FF0080800F097
:1003800063F94FF0000A4FF00B0800F053FF4FF0F5
:10039000090800F059F94FF0000A4FF00C0800F07E
:1003A00049FF4FF0000A01F056F89848016801F43F
:1003B000004100290AD04FF00B0800F045F94FF03A
:1003C000000A4FF00C0800F035FF09E04FF00B0871
:1003D00000F03AF94FF0000A4FF00E0800F02AFF43
:1003E000BDE8FF9F2DE9FF5F4FF0070800F02CF9F3
:1003F0004FF01F0A4FF00A0800F01CFF4FF00808EA
:1004000000F022F94FF01F0A4FF00B0800F012FF26
:100410004FF0090800F018F94FF01F0A4FF00C08D0
:1004200000F008FF4FF01F0A01F015F87748016847
:1004300001F4004100290AD04FF00B0800F004F944
:100440004FF01F0A4FF00C0800F0F4FE09E04FF0E7
:100450000B0800F0F9F84FF01F0A4FF00E0800F0FB
:10046000E9FEBDE8FF9F07B56948016821F4006116
:1004700001606748016821F0FF0141EA0201016063
:100480006348016841F40061016007BD03B560483D
:10049000016841F4805101605D48016821F4806188
:1004A0000160FFF7E0FF03BD03B55948016841F45F
:1004B000805101605648016841F480610160FFF796
:1004C000D2FF03BD2DE9FF5F5148016841F48071FF
:1004D000016001F067FA4E48016821F48071016003
:1004E00001F060FA4A48016841F48071016001F04E
:1004F00059FA4748016841F40071016044480168B5
:1005000041F4006101604248016841F4805101609A
:100510003F48016821F4007101604FF00102FFF7CC
:10052000B5FF01F034FA4FF02802FFF7AFFF4FF0AC
:10053000C502FFF7ABFF4FF07F02FFF7B5FF4FF0AB
:100540000002FFF7B1FF4FF03602FFF79FFF4FF0B9
:100550006802FFF7A9FF4FF03A02FFF797FF4FF04D
:100560005502FFF7A1FF4FF01102FFF78FFF01F0D7
:100570000EFA4FF02902FFF789FF4FF02002FFF734
:1005800085FF4FF02C02FFF781FFBDE8FF9F3FB5CD
:100590004FF02A02FFF77AFF4FEA10252A46FFF7AD
:1005A00083FF0246FFF780FF4FEA11252A46FFF737
:1005B0007BFF0A46FFF778FF4FF02B02FFF766FF3D
:1005C0004FEA13252A46FFF76FFF1A46FFF76CFF25
:1005D0004FEA14252A46FFF767FF2246FFF764FF1C
:1005E0004FF02C02FFF752FF3FBD2DE91F44084B8F
:1005F0001C6824F400441C604FF02C02FFF746FFF7
:10060000BDE81F8406E00000080C01400808014016
:100610000C0801402DE9FF5F894619464B46FFF75C
:10062000B6FFA1EB000BA4EB030C0BFB0CFB4FEA9A
:100630001A252A46FFF738FF5246FFF735FFBBF170
:10064000010BF4D1BDE8FF9F2DE9F85FB8F1010F70
:1006500008BF00F046F8B8F1020F08BF00F046F8F6
:10066000B8F1030F08BF00F046F8B8F1040F08BF57
:1006700000F046F8B8F1050F08BF00F046F8B8F1F1
:10068000060F08BF00F046F8B8F1070F08BF00F0EA
:1006900046F8B8F1080F08BF00F046F8B8F1090FA6
:1006A00008BF00F046F8B8F10A0F08BF00F046F89E
:1006B000B8F10B0F08BF00F046F8B8F10C0F08BFF7
:1006C00000F046F8B8F10D0F08BF00F046F8B8F199
:1006D0000E0F08BF00F046F8B8F10F0F08BF00F08A
:1006E00046F84FF06E004FF0780145E04FF0AA0059
:1006F0004FF0780140E04FF06E004FF03C013BE0DE
:100700004FF0AA004FF03C0136E04FF0E6004FF00A
:100710003C0131E04FF482704FF03C012CE04FF08F
:10072000DC004FF0CD0127E04FF0F5004FF0CD0198
:1007300022E04FF487704FF0CD011DE040F227100A
:100740004FF0CD0118E04FF0FF004FF0B60113E07D
:100750004FF00A004FF09B010EE04FF023004FF0E6
:100760009B0109E04FF00A004FF0820104E04FF0D6
:1007700023004FF08201FFE7BDE8F89F2DE9FF5FFE
:100780004FF0000A4FF000004FF000014FF4A0734B
:100790004FF0F004FFF73EFF4FF4784A4FF00000AF
:1007A0004FF0B4014FF069034FF0F004FFF732FF50
:1007B0004FF4784A4FF0D7004FF0B4014FF4A073D4
:1007C0004FF0F004FFF726FF00F05DFEBDE8FF9F4D
:1007D0002DE9FF5F07B401F07BF905460E46174689
:1007E00007BC01F0D4F8FFF7BCFD00F094FE4FF415
:1007F000784A092D14DD4FF00108FFF725FF4FF06F
:1008000001084FF4784A00F053FC4FF00208FFF75C
:100810001BFFB5F10A084FF4784A00F049FC12E0DA
:100820004FF00108FFF710FF4FF000084FF4784A2F
:1008300000F03EFC4FF00208FFF706FFA8464FF419
:10084000784A00F035FC4FF4784A092E09DD132E62
:100850001BDD1D2E2EDD272E41DD312E54DD3B2EDE
:1008600067DD4FF00308FFF7EFFE4FF000084FF48D
:10087000784A00F01DFC4FF00408FFF7E5FEB04693
:100880004FF4784A00F014FC68E04FF00308FFF7DB
:10089000DBFE4FF001084FF4784A00F009FC4FF0FE
:1008A0000408FFF7D1FEB6F10A084FF4784A00F0C9
:1008B000FFFB53E04FF00308FFF7C6FE4FF00208BE
:1008C0004FF4784A00F0F4FB4FF00408FFF7BCFE49
:1008D000B6F114084FF4784A00F0EAFB3EE04FF01E
:1008E0000308FFF7B1FE4FF003084FF4784A00F019
:1008F000DFFB4FF00408FFF7A7FEB6F11E084FF428
:10090000784A00F0D5FB29E04FF00308FFF79CFE82
:100910004FF004084FF4784A00F0CAFB4FF0040887
:10092000FFF792FEB6F128084FF4784A00F0C0FBBA
:1009300014E04FF00308FFF787FE4FF005084FF46F
:10094000784A00F0B5FB4FF00408FFF77DFEB6F1E2
:1009500032084FF4784A00F0ABFBFFE74FF4784AD7
:10096000092F09DD132F1BDD1D2F2EDD272F41DD64
:10097000312F54DD3B2F67DD4FF00508FFF764FE94
:100980004FF000084FF4784A00F054FC4FF006088E
:10099000FFF75AFEB8464FF4784A00F04BFC68E087
:1009A0004FF00508FFF750FE4FF001084FF4784A6A
:1009B00000F040FC4FF00608FFF746FEB7F10A08CA
:1009C0004FF4784A00F036FC53E04FF00508FFF78B
:1009D0003BFE4FF002084FF4784A00F02BFC4FF03A
:1009E0000608FFF731FEB7F114084FF4784A00F01B
:1009F00021FC3EE04FF00508FFF726FE4FF003080C
:100A00004FF4784A00F016FC4FF00608FFF71CFE82
:100A1000B7F11E084FF4784A00F00CFC29E04FF0C3
:100A20000508FFF711FE4FF004084FF4784A00F074
:100A300001FC4FF00608FFF707FEB7F128084FF456
:100A4000784A00F0F7FB14E04FF00508FFF7FCFDD3
:100A50004FF005084FF4784A00F0ECFB4FF0060821
:100A6000FFF7F2FDB7F132084FF4784A00F0E2FBED
:100A7000FFE700F08CFF00F0E1F900F088FF00F0E4
:100A8000D2FDBDE8FF9F2DE9FF5F4FF01F0A4FF039
:100A900000004FF000014FF4A0734FF0F004FFF797
:100AA000B9FD4FF0000A4FF000004FF0B4014FF0D5
:100AB00069034FF0F004FFF7ADFD4FF0000A4FF06F
:100AC000D7004FF0B4014FF4A0734FF0F004FFF7DC
:100AD000A1FD00F0FCFCBDE8FF9F2DE9FF5F07B41E
:100AE00000F0F6FF05460E46174607BC00F04FFF24
:100AF000FFF778FC00F01FFE4FF0000A092D14DD0F
:100B00004FF00108FFF7A0FD4FF001084FF0000A79
:100B100000F0CEFA4FF00208FFF796FDB5F10A0893
:100B20004FF0000A00F0C4FA12E04FF00108FFF79E
:100B30008BFD4FF000084FF0000A00F0B9FA4FF0BB
:100B40000208FFF781FDA8464FF0000A00F0B0FA56
:100B50004FF0000A092E09DD132E1BDD1D2E2EDDA0
:100B6000272E41DD312E54DD3B2E67DD4FF003088B
:100B7000FFF76AFD4FF000084FF0000A00F098FA06
:100B80004FF00408FFF760FDB0464FF0000A00F098
:100B90008FFA68E04FF00308FFF756FD4FF00108A9
:100BA0004FF0000A00F084FA4FF00408FFF74CFD04
:100BB000B6F10A084FF0000A00F07AFA53E04FF05D
:100BC0000308FFF741FD4FF002084FF0000A00F064
:100BD0006FFA4FF00408FFF737FDB6F114084FF035
:100BE000000A00F065FA3EE04FF00308FFF72CFD25
:100BF0004FF003084FF0000A00F05AFA4FF00408D3
:100C0000FFF722FDB6F11E084FF0000A00F050FA7F
:100C100029E04FF00308FFF717FD4FF004084FF0ED
:100C2000000A00F045FA4FF00408FFF70DFDB6F199
:100C300028084FF0000A00F03BFA14E04FF00308D8
:100C4000FFF702FD4FF005084FF0000A00F030FA00
:100C50004FF00408FFF7F8FCB6F132084FF0000A35
:100C600000F026FAFFE74FF0000A092F09DD132FE5
:100C70001BDD1D2F2EDD272F41DD312F54DD3B2FB6
:100C800067DD4FF00508FFF7DFFC4FF000084FF07D
:100C9000000A00F0CFFA4FF00608FFF7D5FCB8467F
:100CA0004FF0000A00F0C6FA68E04FF00508FFF7C1
:100CB000CBFC4FF001084FF0000A00F0BBFA4FF0F8
:100CC0000608FFF7C1FCB7F10A084FF0000A00F070
:100CD000B1FA53E04FF00508FFF7B6FC4FF00208F9
:100CE0004FF0000A00F0A6FA4FF00608FFF7ACFC40
:100CF000B7F114084FF0000A00F09CFA3EE04FF004
:100D00000508FFF7A1FC4FF003084FF0000A00F0C0
:100D100091FA4FF00608FFF797FCB7F11E084FF065
:100D2000000A00F087FA29E04FF00508FFF78CFC75
:100D30004FF004084FF0000A00F07CFA4FF006086C
:100D4000FFF782FCB7F128084FF0000A00F072FAB2
:100D500014E04FF00508FFF777FC4FF005084FF05F
:100D6000000A00F067FA4FF00608FFF76DFCB7F1D4
:100D700032084FF0000A00F05DFAFFE700F007FECE
:100D80004FF01F0A00F0CCF800F001FE00F002FF67
:100D9000BDE8FF9F2DE9FF5F01F1200100F128036D
:100DA00001F10804FFF736FCBDE8FF9F2DE9FF5F66
:100DB00001F1140100F10A0301F11404FFF72AFC08
:100DC000BDE8FF9F2DE9FF5F00F11E0001F1140156
:100DD00000F10A0301F11404FFF71CFCBDE8FF9FBA
:100DE0002DE9FF5F01F1100100F1280301F1080472
:100DF000FFF710FCBDE8FF9F2DE9FF5F01F108013F
:100E000000F10A0301F10C04FFF704FCBDE8FF9FA9
:100E10002DE9FF5F00F11E0000F10A0301F1140447
:100E2000FFF7F8FBBDE8FF9F2DE9FF5F00F1280306
:100E300001F10804FFF7EEFBBDE8FF9F2DE9FF5F1E
:100E40004FF0000A4FF00108FFF7FEFB4FF00808D3
:100E500000F02EF94FF0000A4FF00208FFF7F4FB04
:100E60004FF0080800F024F94FF0000A4FF0030893
:100E7000FFF7EAFB4FF0080800F01AF94FF0000AFC
:100E80004FF00408FFF7E0FB4FF0080800F010F9FE
:100E90004FF0000A4FF00508FFF7D6FB4FF00808A7
:100EA00000F0C8F94FF0000A4FF00608FFF7CCFB3E
:100EB0004FF0080800F0BEF94FF4784A4FF00B08E5
:100EC000FFF7C2FB4FF0080800F0B4F94FF0000A3A
:100ED0004FF00C08FFF7B8FB4FF0080800F0AAF934
:100EE0004FF0000A4FF00D08FFF7AEFB4FF0080877
:100EF00000F0A0F94FF0000A4FF00E08FFF7A4FB36
:100F00004FF0080800F096F94FF0000A4FF00F0874
:100F1000FFF79AFB4FF0080800F08CF9BDE8FF9F3F
:100F20002DE9FF5F4FF01F0A4FF00108FFF78CFB20
:100F30004FF0080800F0BCF84FF01F0A4FF002080D
:100F4000FFF782FB4FF0080800F0B2F84FF01F0ADD
:100F50004FF00308FFF778FB4FF0080800F0A8F8FF
:100F60004FF01F0A4FF00408FFF76EFB4FF0080820
:100F700000F09EF84FF01F0A4FF00508FFF764FBE2
:100F80004FF0080800F056F94FF01F0A4FF006081E
:100F9000FFF75AFB4FF0080800F04CF94FF0000A39
:100FA0004FF00B08FFF750FB4FF0080800F042F934
:100FB0004FF01F0A4FF00C08FFF746FB4FF00808F0
:100FC00000F038F94FF01F0A4FF00D08FFF73CFB17
:100FD0004FF0080800F02EF94FF01F0A4FF00E08EE
:100FE000FFF732FB4FF0080800F024F94FF01F0A1A
:100FF0004FF00F08FFF728FB4FF0080800F01AF930
:1010000000F021FCBDE8FF9F2DE9FF5F01F1100119
:1010100000F1140301F10404FFF7FCFABDE8FF9F9F
:101020002DE9FF5F01F10A0100F1050301F10A0456
:10103000FFF7F0FABDE8FF9F2DE9FF5F00F10F0019
:1010400001F10A0100F1050301F10A04FFF7E2FAD8
:10105000BDE8FF9F2DE9FF5F01F1080100F11403D6
:1010600001F10404FFF7D6FABDE8FF9F2DE9FF5F09
:1010700001F1040100F1050301F10604FFF7CAFACA
:10108000BDE8FF9F2DE9FF5F00F10F0000F10503B0
:1010900001F10F04FFF7BEFABDE8FF9F2DE9FF5FE6
:1010A00000F1140301F10404FFF7B4FABDE8FF9F57
:1010B0002DE9FF5FB8F1000F08BF00F02FF8B8F17D
:1010C000010F08BF00F03AF8B8F1020F08BF00F0B6
:1010D0003DF8B8F1030F08BF00F046F8B8F1040F6F
:1010E00008BF00F04FF8B8F1050F08BF00F056F840
:1010F000B8F1060F08BF00F05FF8B8F1070F08BF9E
:1011000000F06AF8B8F1080F08BF00F071F8B8F104
:10111000090F08BF00F07EF8BDE8FF9F2DE9FF5FD3
:10112000FFF750FEFFF768FEFFF740FEFFF770FE87
:10113000FFF730FEFFF778FEBDE8FF9F2DE9FF5F68
:10114000FFF740FEFFF764FEBDE8FF9F2DE9FF5F5C
:10115000FFF738FEFFF750FEFFF766FEFFF71AFEB7
:10116000FFF73EFEBDE8FF9F2DE9FF5FFFF72AFE78
:10117000FFF74EFEFFF758FEFFF70CFEFFF730FEBD
:10118000BDE8FF9F2DE9FF5FFFF710FEFFF740FE70
:10119000FFF718FEFFF724FEBDE8FF9F2DE9FF5F74
:1011A000FFF704FEFFF734FEFFF71AFEFFF7F2FD2C
:1011B000FFF73AFEBDE8FF9F2DE9FF5FFFF71CFE3A
:1011C000FFF7F4FDFFF724FEFFF70AFEFFF7E2FD4D
:1011D000FFF72AFEBDE8FF9F2DE9FF5FFFF7F2FD55
:1011E000FFF716FEFFF7D6FDFFF7FAFDBDE8FF9FFC
:1011F0002DE9FF5FFFF7E6FDFFF7FEFDFFF7D6FDE8
:10120000FFF706FEFFF7ECFDFFF7C4FDFFF70CFE4E
:10121000BDE8FF9F2DE9FF5FFFF7D4FDFFF7C6FD97
:10122000FFF7F6FDFFF7DCFDFFF7B4FDFFF7FCFD70
:10123000BDE8FF9F2DE9FF5FB8F1000F08BF00F088
:1012400048F8B8F1010F08BF00F053F8B8F1020FE9
:1012500008BF00F056F8B8F1030F08BF00F05FF8C0
:10126000B8F1040F08BF00F068F8B8F1050F08BF27
:1012700000F06FF8B8F1060F08BF00F078F8B8F189
:10128000070F08BF00F083F8B8F1080F08BF00F09F
:101290008AF8B8F1090F08BF00F097F8B8F10A0F03
:1012A00008BF00F0A2F8B8F10B0F08BF00F0ADF8CE
:1012B000B8F10C0F08BF00F0B6F8B8F10D0F08BF79
:1012C00000F0C9F8B8F10E0F08BF00F0B8F8BDE89B
:1012D000FF9F2DE9FF5FFFF7AFFEFFF7C7FEFFF7A8
:1012E0009FFEFFF7CFFEFFF78FFEFFF7D7FEBDE8AB
:1012F000FF9F2DE9FF5FFFF79FFEFFF7C3FEBDE8ED
:10130000FF9F2DE9FF5FFFF797FEFFF7AFFEFFF7A7
:10131000C5FEFFF779FEFFF79DFEBDE8FF9F2DE9B3
:10132000FF5FFFF789FEFFF7ADFEFFF7B7FEFFF7A0
:101330006BFEFFF78FFEBDE8FF9F2DE9FF5FFFF714
:101340006FFEFFF79FFEFFF777FEFFF783FEBDE816
:10135000FF9F2DE9FF5FFFF763FEFFF793FEFFF7A7
:1013600079FEFFF751FEFFF799FEBDE8FF9F2DE9DB
:10137000FF5FFFF77BFEFFF753FEFFF783FEFFF7EC
:1013800069FEFFF741FEFFF789FEBDE8FF9F2DE9EB
:10139000FF5FFFF751FEFFF775FEFFF735FEFFF722
:1013A00059FEBDE8FF9F2DE9FF5FFFF745FEFFF700
:1013B0005DFEFFF735FEFFF765FEFFF74BFEFFF71B
:1013C00023FEFFF76BFEBDE8FF9F2DE9FF5FFFF7F0
:1013D00033FEFFF725FEFFF755FEFFF73BFEFFF755
:1013E00013FEFFF75BFEBDE8FF9F2DE9FF5FFFF7F0
:1013F00023FEFFF73BFEFFF713FEFFF743FEFFF769
:1014000003FEFFF74BFEBDE8FF9F2DE9FF5FFFF7EF
:1014100007FEFFF72BFEFFF741FEFFF7F5FDFFF795
:1014200019FEBDE8FF9F2DE9FF5FFFF7F9FDFFF70C
:101430001DFEFFF733FEFFF70DFEBDE8FF9F2DE910
:10144000FF5FFFF7EDFDFFF711FEFFF7DDFDFFF793
:1014500001FEBDE8FF9F2DE9FF5F4FF496704FF04E
:10146000CD0140F231134FF0D204FFF7D3F84FF41F
:1014700096704FF0DC0140F231134FF0E104FFF7BA
:10148000C9F8BDE8FF9F2DE9FF5F4FF0000A4FF05C
:1014900005004FF0BE01FFF734FF4FF0000A4FF098
:1014A0001E004FF0BE01FFF73AFF4FF0000A4FF069
:1014B00032004FF0BE01FFF71CFF4FF0000A4FF063
:1014C0004B004FF0BE01FFF71CFFBDE8FF9F2DE969
:1014D000FF5F4FF01F0A4FF005004FF0BE01FFF70E
:1014E00010FF4FF01F0A4FF01E004FF0BE01FFF734
:1014F00016FF4FF01F0A4FF032004FF0BE01FFF70A
:10150000F8FE4FF01F0A4FF04B004FF0BE01FFF7FF
:10151000F8FEBDE8FF9F2DE9FF5F4FF0040907FBD0
:1015200009FB4FF4784A40F2271CACEB0B004FF05C
:10153000280140F23B1CACEB0B034FF03204FFF7E9
:1015400069F84FF0000A40F22B1CACEB0B004FF097
:101550002A0140F22F1CACEB0B034FF02E04FFF7D7
:1015600059F84FF0000A40F2331CACEB0B004FF07F
:101570002A0140F2371CACEB0B034FF02E04FFF7AF
:1015800049F84FF4784A40F2271CACEB0B004FF0BF
:101590000F0140F23B1CACEB0B034FF02304FFF7B1
:1015A00039F84FF4784A40F22B1CACEB0B004FF0AB
:1015B000000140F22F1CACEB0B034FF00504FFF7CA
:1015C00029F84FF4784A40F2331CACEB0B004FF093
:1015D000000140F2371CACEB0B034FF00504FFF7A2
:1015E00019F84FF0000A40F2331CACEB0B004FF03F
:1015F000190140F2371CACEB0B034FF01E04FFF750
:1016000009F84FF0000A40F22B1CACEB0B004FF036
:10161000190140F22F1CACEB0B034FF01E04FEF738
:10162000F9FFBDE8FF9F2DE9FF5F4FF0040907FBBD
:1016300009FB4FF0000A40F2271CACEB0B004FF007
:10164000280140F23B1CACEB0B034FF03204FEF7D9
:10165000E1FF4FF0000A40F22B1CACEB0B004FF007
:101660002A0140F22F1CACEB0B034FF02E04FEF7C7
:10167000D1FF4FF0000A40F2331CACEB0B004FF0EF
:101680002A0140F2371CACEB0B034FF02E04FEF79F
:10169000C1FF4FF0000A40F2271CACEB0B004FF0EB
:1016A0000F0140F23B1CACEB0B034FF02304FEF7A1
:1016B000B1FF4FF0000A40F22B1CACEB0B004FF0D7
:1016C000000140F22F1CACEB0B034FF00504FEF7BA
:1016D000A1FF4FF0000A40F2331CACEB0B004FF0BF
:1016E000000140F2371CACEB0B034FF00504FEF792
:1016F00091FF4FF0000A40F2331CACEB0B004FF0AF
:10170000190140F2371CACEB0B034FF01E04FEF73F
:1017100081FF4FF0000A40F22B1CACEB0B004FF0A6
:10172000190140F22F1CACEB0B034FF01E04FEF727
:1017300071FFBDE8FF9F2DE9FF5F4FF0000A4FF0FA
:10174000040907FB09FB4FF0050C0CEB0B004FF0F5
:1017500028014FF0190C0CEB0B034FF03204FEF78D
:1017600059FF4FF01F0A4FF0090C0CEB0B004FF024
:101770002A014FF00D0C0CEB0B034FF02E04FEF77B
:1017800049FF4FF01F0A4FF0110C0CEB0B004FF00C
:101790002A014FF0150C0CEB0B034FF02E04FEF753
:1017A00039FF4FF0000A4FF0050C0CEB0B004FF027
:1017B0000F014FF0190C0CEB0B034FF02304FEF755
:1017C00029FF4FF0000A4FF0090C0CEB0B004FF013
:1017D00000014FF00D0C0CEB0B034FF00504FEF76E
:1017E00019FF4FF0000A4FF0110C0CEB0B004FF0FB
:1017F00000014FF0150C0CEB0B034FF00504FEF746
:1018000009FF4FF01F0A4FF0110C0CEB0B004FF0CB
:1018100019014FF0150C0CEB0B034FF01E04FEF7F3
:10182000F9FE4FF01F0A4FF0090C0CEB0B004FF0C4
:1018300019014FF00D0C0CEB0B034FF01E04FEF7DB
:10184000E9FEBDE8FF9F2DE9FF5F4FF01F0A4FF053
:10185000040907FB09FB4FF0050C0CEB0B004FF0E4
:1018600028014FF0190C0CEB0B034FF03204FEF77C
:10187000D1FE4FF01F0A4FF0090C0CEB0B004FF09C
:101880002A014FF00D0C0CEB0B034FF02E04FEF76A
:10189000C1FE4FF01F0A4FF0110C0CEB0B004FF084
:1018A0002A014FF0150C0CEB0B034FF02E04FEF742
:1018B000B1FE4FF01F0A4FF0050C0CEB0B004FF080
:1018C0000F014FF0190C0CEB0B034FF02304FEF744
:1018D000A1FE4FF01F0A4FF0090C0CEB0B004FF06C
:1018E00000014FF00D0C0CEB0B034FF00504FEF75D
:1018F00091FE4FF01F0A4FF0110C0CEB0B004FF054
:1019000000014FF0150C0CEB0B034FF00504FEF734
:1019100081FE4FF01F0A4FF0110C0CEB0B004FF043
:1019200019014FF0150C0CEB0B034FF01E04FEF7E2
:1019300071FE4FF01F0A4FF0090C0CEB0B004FF03B
:1019400019014FF00D0C0CEB0B034FF01E04FEF7CA
:1019500061FEBDE8FF9F2DE9FF5F7F4908684FF0FA
:10196000010240EA820008607B4908684FF00102EA
:1019700040EA0200086079484FF03331016078484E
:101980004FF033310160FEF79DFDBDE8FF9F2DE96B
:101990000041DFF8D081B8F10108B8F1000FFADAA0
:1019A000BDE800812DE90041DFF8B881B8F10208F7
:1019B000B8F1000FFADABDE800812DE90041DFF847
:1019C000A481B8F57A78B8F1000FFADABDE80081A1
:1019D0002DE90041DFF88C81B8F16408B8F1000FFF
:1019E000FADABDE800812DE90041DFF87881B8F12D
:1019F0000208B8F1000FFADABDE800812DE9FF5FB7
:101A0000554801684FF0010241EA82010160BDE8DA
:101A1000FF9F2DE9FF5F504801684FF0010241EA46
:101A2000C2010160BDE8FF9F2DE9FF5F4A480168E0
:101A30004FF0010241EA02110160BDE8FF9F2DE96C
:101A4000FF5F4948016841F0006141F08051016049
:101A50004648016841F4807101604548016841F0E1
:101A6000010101600A4602F00202002A08BFFFF7E6
:101A7000F9FF3F48016821F4407141F48071016031
:101A80003B48016841F4004101603A48016801F0B7
:101A90002001002908BFFFF7F8FF3648016801F070
:101AA0000801002908BFFFF7F8FF016841F01001A5
:101AB0000160314847F6FF710160304846F6100179
:101AC00001602C48016821F010010160BDE8FF9F12
:101AD0002DE9F85F2A480168284802684FEA014169
:101AE00041EA02034FF461644FF00005A34204DBB6
:101AF000A3EB040305F10105F8E74FF03C044FF0B8
:101B00000006A34204DBA3EB040306F10106F8E799
:101B1000284631461A46BDE8F89F2DE9FF5F124876
:101B2000016841F001010160164841F63F71016012
:101B3000154842F22831016014484FF0010101605C
:101B400013484FF0805101604FF080404FF0010189
:101B50000160BDE8FF9F1DE0181002400008014031
:101B600004080140046018001C100240007000408E
:101B700020100240042800400C2800401C2800408F
:101B800018280040280000402C0000400C000040B5
:101B900000E100E02DE9FF5F4FF0000AB9F1090F05
:101BA00040F36080B9F1130F40F38480B9F11D0F49
:101BB00040F3A980B9F1270F40F3CE80B9F1310F7E
:101BC00040F3F380B9F13B0F40F31881B9F1450FB1
:101BD00040F33D81B9F14F0F40F36281B9F1590FE4
:101BE00040F38781B9F1630F40F3AC81B9F16D0F18
:101BF00040F3D181B9F1770F40F3F681B9F1810F4C
:101C000040F31B82B9F18B0F40F34082B9F1950F7D
:101C100040F36582B9F19F0F40F38A82B9F1A90FB1
:101C200040F3AF82B9F1B30F40F3D482B9F1BD0FE5
:101C300040F3F982B9F1C70F40F31E83B9F1D10F18
:101C400040F34383B9F1DB0F40F36883B9F1E50F4B
:101C500040F38D83B9F1EF0F40F3B283B9F1F90F7F
:101C600040F3D7834FF00C08FEF7EEFC4FF000086E
:101C70004FF0000AFFF7DEFA4FF00D08FEF7E4FC24
:101C80004FF000084FF0000AFFF7D4FA4FF00E08AB
:101C9000FEF7DAFC4FF000084FF0000AFFF7CAFA2F
:101CA0004FF00F08FEF7D0FCC8464FF0000AFFF7D0
:101CB000C1FAD7E34FF00C08FEF7C6FC4FF000085E
:101CC0004FF0000AFFF7B6FA4FF00D08FEF7BCFC24
:101CD0004FF000084FF0000AFFF7ACFA4FF00E0883
:101CE000FEF7B2FC4FF001084FF0000AFFF7A2FA2E
:101CF0004FF00F08FEF7A8FCB9F10A084FF0000AF0
:101D0000FFF798FAAEE34FF00C08FEF79DFC4FF09A
:101D100000084FF0000AFFF78DFA4FF00D08FEF7AC
:101D200093FC4FF000084FF0000AFFF783FA4FF0E2
:101D30000E08FEF789FC4FF002084FF0000AFFF78B
:101D400079FA4FF00F08FEF77FFCB9F114084FF055
:101D5000000AFFF76FFA85E34FF00C08FEF774FCFA
:101D60004FF000084FF0000AFFF764FA4FF00D083B
:101D7000FEF76AFC4FF000084FF0000AFFF75AFA2E
:101D80004FF00E08FEF760FC4FF003084FF0000A1A
:101D9000FFF750FA4FF00F08FEF756FCB9F11E0896
:101DA0004FF0000AFFF746FA5CE34FF00C08FEF72D
:101DB0004BFC4FF000084FF0000AFFF73BFA4FF0E2
:101DC0000D08FEF741FC4FF000084FF0000AFFF746
:101DD00031FA4FF00E08FEF737FC4FF004084FF0D1
:101DE000000AFFF727FA4FF00F08FEF72DFCB9F1B4
:101DF00028084FF0000AFFF71DFA33E34FF00C08F4
:101E0000FEF722FC4FF000084FF0000AFFF712FA2D
:101E10004FF00D08FEF718FC4FF000084FF0000AD5
:101E2000FFF708FA4FF00E08FEF70EFC4FF005081A
:101E30004FF0000AFFF7FEF94FF00F08FEF704FC21
:101E4000B9F132084FF0000AFFF7F4F90AE34FF056
:101E50000C08FEF7F9FB4FF000084FF0000AFFF7FF
:101E6000E9F94FF00D08FEF7EFFB4FF000084FF0D7
:101E7000000AFFF7DFF94FF00E08FEF7E5FB4FF021
:101E800006084FF0000AFFF7D5F94FF00F08FEF7EC
:101E9000DBFBB9F13C084FF0000AFFF7CBF9E1E2B8
:101EA0004FF00C08FEF7D0FB4FF000084FF0000A8F
:101EB000FFF7C0F94FF00D08FEF7C6FB4FF0000822
:101EC0004FF0000AFFF7B6F94FF00E08FEF7BCFB23
:101ED0004FF007084FF0000AFFF7ACF94FF00F087A
:101EE000FEF7B2FBB9F146084FF0000AFFF7A2F97E
:101EF000B8E24FF00C08FEF7A7FB4FF000084FF0D8
:101F0000000AFFF797F94FF00D08FEF79DFB4FF021
:101F100000084FF0000AFFF78DF94FF00E08FEF7AA
:101F200093FB4FF008084FF0000AFFF783F94FF0DA
:101F30000F08FEF789FBB9F150084FF0000AFFF7D0
:101F400079F98FE24FF00C08FEF77EFB4FF00008A6
:101F50004FF0000AFFF76EF94FF00D08FEF774FB23
:101F60004FF000084FF0000AFFF764F94FF00E0839
:101F7000FEF76AFB4FF009084FF0000AFFF75AF925
:101F80004FF00F08FEF760FBB9F15A084FF0000A56
:101F9000FFF750F966E24FF00C08FEF755FB4FF0E3
:101FA00000084FF0000AFFF745F94FF00D08FEF763
:101FB0004BFB4FF001084FF0000AFFF73BF94FF0E1
:101FC0000E08FEF741FB4FF000084FF0000AFFF744
:101FD00031F94FF00F08FEF737FBB9F164084FF005
:101FE000000AFFF727F93DE24FF00C08FEF72CFB43
:101FF0004FF000084FF0000AFFF71CF94FF00D08F2
:10200000FEF722FB4FF001084FF0000AFFF712F92C
:102010004FF00E08FEF718FB4FF001084FF0000AD2
:10202000FFF708F94FF00F08FEF70EFBB9F16E0845
:102030004FF0000AFFF7FEF814E24FF00C08FEF72D
:1020400003FB4FF000084FF0000AFFF7F3F84FF0E2
:102050000D08FEF7F9FA4FF001084FF0000AFFF7FC
:10206000E9F84FF00E08FEF7EFFA4FF002084FF0D4
:10207000000AFFF7DFF84FF00F08FEF7E5FAB9F1B5
:1020800078084FF0000AFFF7D5F8EBE14FF00C08A5
:10209000FEF7DAFA4FF000084FF0000AFFF7CAF82F
:1020A0004FF00D08FEF7D0FA4FF001084FF0000A8C
:1020B000FFF7C0F84FF00E08FEF7C6FA4FF003081E
:1020C0004FF0000AFFF7B6F84FF00F08FEF7BCFA22
:1020D000B9F182084FF0000AFFF7ACF8C2E14FF007
:1020E0000C08FEF7B1FA4FF000084FF0000AFFF7B6
:1020F000A1F84FF00D08FEF7A7FA4FF001084FF0D6
:10210000000AFFF797F84FF00E08FEF79DFA4FF020
:1021100004084FF0000AFFF78DF84FF00F08FEF7A4
:1021200093FAB9F18C084FF0000AFFF783F899E1B0
:102130004FF00C08FEF788FA4FF000084FF0000A45
:10214000FFF778F84FF00D08FEF77EFA4FF0010820
:102150004FF0000AFFF76EF84FF00E08FEF774FA22
:102160004FF005084FF0000AFFF764F84FF00F0832
:10217000FEF76AFAB9F196084FF0000AFFF75AF82D
:1021800070E14FF00C08FEF75FFA4FF000084FF0D7
:10219000000AFFF74FF84FF00D08FEF755FA4FF021
:1021A00001084FF0000AFFF745F84FF00E08FEF760
:1021B0004BFA4FF006084FF0000AFFF73BF84FF0DC
:1021C0000F08FEF741FAB9F1A0084FF0000AFFF737
:1021D00031F847E14FF00C08FEF736FA4FF00008EF
:1021E0004FF0000AFFF726F84FF00D08FEF72CFA23
:1021F0004FF001084FF0000AFFF71CF84FF00E08EF
:10220000FEF722FA4FF007084FF0000AFFF712F826
:102210004FF00F08FEF718FAB9F1AA084FF0000ABC
:10222000FFF708F81EE14FF00C08FEF70DFA4FF02B
:1022300000084FF0000AFEF7FDFF4FF00D08FEF713
:1022400003FA4FF001084FF0000AFEF7F3FF4FF0DA
:102250000E08FEF7F9F94FF008084FF0000AFEF7F4
:10226000E9FF4FF00F08FEF7EFF9B9F1B4084FF0AE
:10227000000AFEF7DFFFF5E04FF00C08FEF7E4F987
:102280004FF000084FF0000AFEF7D4FF4FF00D08A2
:10229000FEF7DAF94FF001084FF0000AFEF7CAFF27
:1022A0004FF00E08FEF7D0F94FF009084FF0000A82
:1022B000FEF7C0FF4FF00F08FEF7C6F9B9F1BE08F0
:1022C0004FF0000AFEF7B6FFCCE04FF00C08FEF727
:1022D000BBF94FF000084FF0000AFEF7ABFF4FF0DC
:1022E0000D08FEF7B1F94FF002084FF0000AFEF7B3
:1022F000A1FF4FF00E08FEF7A7F94FF000084FF0CE
:10230000000AFEF797FF4FF00F08FEF79DF9B9F1AD
:10231000C8084FF0000AFEF78DFFA3E04FF00C084D
:10232000FEF792F94FF000084FF0000AFEF782FF27
:102330004FF00D08FEF788F94FF002084FF0000A41
:10234000FEF778FF4FF00E08FEF77EF94FF0010818
:102350004FF0000AFEF76EFF4FF00F08FEF774F91A
:10236000B9F1D2084FF0000AFEF764FF7AE04FF0AF
:102370000C08FEF769F94FF000084FF0000AFEF76D
:1023800059FF4FF00D08FEF75FF94FF002084FF0CC
:10239000000AFEF74FFF4FF00E08FEF755F94FF019
:1023A00002084FF0000AFEF745FF4FF00F08FEF756
:1023B0004BF9B9F1DC084FF0000AFEF73BFF51E0A2
:1023C0004FF00C08FEF740F94FF000084FF0000AFC
:1023D000FEF730FF4FF00D08FEF736F94FF0020818
:1023E0004FF0000AFEF726FF4FF00E08FEF72CF91B
:1023F0004FF003084FF0000AFEF71CFF4FF00F08E4
:10240000FEF722F9B9F1E6084FF0000AFEF712FFD5
:1024100028E04FF00C08FEF717F94FF000084FF0D6
:10242000000AFEF707FF4FF00D08FEF70DF94FF019
:1024300002084FF0000AFEF7FDFE4FF00E08FEF70F
:1024400003F94FF004084FF0000AFEF7F3FE4FF0D7
:102450000F08FEF7F9F8B9F1F0084FF0000AFEF79F
:08246000E9FEFFE7BDE8FF9F64
:04000005080000ED02
:00000001FF
