:020000040800F2
:1000000000060020ED000008F5000008F7000008D9
:10001000F9000008FB000008FD00000800000000D7
:10002000000000000000000000000000FF000008C9
:10003000010100080000000003010008050100089C
:100040000701000807010008070100080701000870
:100050000701000807010008070100080701000860
:100060000701000807010008070100080701000850
:100070000701000807010008070100080701000840
:100080000701000807010008070100080701000830
:100090000701000807010008070100080701000820
:1000A0000701000807010008070100080701000810
:1000B0000701000807010008070100080701000800
:1000C00007010008070100080701000807010008F0
:1000D00007010008070100080701000807010008E0
:1000E0000701000823010008230100081048804789
:1000F00010480047FEE7FEE7FEE7FEE7FEE7FEE703
:10010000FEE7FEE7FEE72DE9FF5F0B48016841F4DB
:10011000805101600948016881F020010160BDE85B
:10012000FF9FFEE706480749074A084B7047000053
:1001300085020008ED020008140401400C0801408B
:100140000000002000060020000200200002002025
:10015000704770477047000080B500F001F880BD1F
:1001600084B000200390029041F20001C4F2020129
:10017000086840F480300860FFE741F20000C4F2F4
:100180000200006800F400300290039801300390F0
:10019000FFE702990020019039B9FFE70398B0F515
:1001A000A06018BF01200190FFE70198C007002858
:1001B000E3D1FFE741F20000C4F2020000688003CF
:1001C000002803D5FFE70120029002E00020029002
:1001D000FFE70298012851D1FFE742F20001C4F283
:1001E0000201086840F010000860086820F007006D
:1001F0000860086840F00200086041F20401C4F29F
:10020000020100910868086008680860086840F406
:1002100080600860086820F47C100860086840F47A
:10022000E810086041F20001C4F20201086840F0E1
:1002300080700860FFE741F20000C4F2020000682D
:100240008001002801D4FFE7F5E741F20401C4F280
:100250000201086820F003000860086840F002000E
:100260000860FFE741F20400C4F20200006800F0F9
:100270000C00082801D0FFE7F4E700E0FFE704B036
:100280007047000080B541F20002C4F2020210681B
:1002900040F00100106041F20401C4F2020108685C
:1002A0000023CFF6FF031840086010684FF6FF7375
:1002B000CFF6F66318401060106820F480201060BC
:1002C000086820F4FE00086041F20801C4F202014F
:1002D0004FF41F000860FFF73FFF4EF60851CEF2C3
:1002E00000014FF00060086080BD000000F060F881
:1002F00000F069F8A248A3490160A348A34901603E
:10030000DFF88C924FF0000A00F09EF8A1480168D7
:100310004FEA0141A048026841EA020303F01F04CA
:100320009E48016821F01F0141EA04010160D9F8EB
:1003300000804FEA182808F03F0808F1030A4345F7
:1003400002D141F0200101605345DFD121F02001AD
:100350000160DBE72DE90041DFF84482B8F10108D4
:10036000B8F1000FFADABDE800812DE90041DFF8AD
:1003700030824FEA5808B8F10108B8F1000FFADAF4
:10038000BDE800812DE90041DFF81482B8F57A78E4
:10039000B8F1000FFADABDE800812DE90041DFF87D
:1003A0000082B8F16408B8F1000FFADABDE8008104
:1003B0002DE9FF5F7B4801684FF0010241EA8201AD
:1003C0000160BDE8FF9F2DE9FF5F764801684FF0AF
:1003D000010241EAC2010160BDE8FF9F2DE9FF5F14
:1003E000704801684FF0010241EA02110160BDE866
:1003F000FF9F2DE9FF5F6B48016841F0010101603B
:100400006148016821F4702141F48021016066484F
:10041000016821F00F0141F00101016063480168AA
:1004200041F4805101606248016841F480510160EB
:100430006048016821F4805101605F48016841F41F
:1004400080710160BDE8FF9F2DE9FF5F5B48016897
:1004500041F0006141F0805101605948016841F468
:10046000807101605748016841F0010101600A464E
:1004700002F00202002AFAD05248016821F44071C9
:1004800041F4807101604F48016841F4004101600E
:100490004D48016801F020010029F9D04A4801685F
:1004A00001F008010029F9D0016841F01001016054
:1004B000464847F6FF7101604348016821F010018A
:1004C0000160BDE8FF9F2DE9FF5F3648016841F4F8
:1004D000007101602A48016821F0F00101603C4888
:1004E000016841F0380101603A484FF001010160B4
:1004F0003948016841F0200101603848016841F045
:100500000101016041F48001016035484FF4802110
:100510000160BDE8FF9F2DE9F05F4FF4616804FBC7
:1005200008F44FF03C0905FB09F504EB050707EB60
:100530000600BDE8F09F2DE9F05F164801681648F7
:1005400002684FEA014141EA02034FF461644FF04F
:100550000005A34204DBA3EB040305F10105F8E762
:100560004FF03C044FF00006A34204DBA3EB04036E
:1005700006F10106F8E7284631461A46BDE8F09F25
:100580000008014033333300040C014088888800A0
:10059000080C0140182800401C2800400C080140AD
:1005A00004601800181002401400014000040140CB
:1005B000080401400C04014004E100E01C1002406A
:1005C0000070004020100240042800400C28004029
:1005D0001024014034240140042401400824014037
:0405E00000E100E056
:04000005080000ED02
:00000001FF
